:020000040800F2
:10000000C006002001010008D1300008A52C00081E
:10001000C92F0008690B00085D39000800000000C6
:100020000000000000000000000000009131000806
:100030009F0B0008000000006531000893310008A4
:100040001B0100081B0100081B0100081B01000820
:100050001B0100081B0100081B0100081B01000810
:100060001B0100081B0100081B0100081B01000800
:100070001B0100081B0100081B0100081B010008F0
:100080001B0100081B0100081B0100081B010008E0
:100090001B0100081B0100081B0100081B010008D0
:1000A0001B0100081B0100081B01000805320008A5
:1000B0001B0100081B010008153200081B01000885
:1000C0001B0100081B0100081B0100081B010008A0
:1000D0001B0100083D3900081B0100084D390008CC
:1000E0001B0100081B0100081B010008DFF80CD0F1
:1000F00000F0C6FA00480047853B0008C006002013
:100100000648804706480047FEE7FEE7FEE7FEE7B1
:10011000FEE7FEE7FEE7FEE7FEE7FEE70132000846
:10012000ED000008202A04DB203A21FA02F0002129
:10013000704721FA02F3D040C2F1200291400843F7
:100140001946704740EA01039B0703D009E008C93C
:10015000121F08C0042AFAD203E011F8013B00F88C
:10016000013B521EF9D27047D2B201E000F8012BD8
:10017000491EFBD270470022F6E710B513460A4627
:1001800004461946FFF7F0FF204610BDF0B480EAA0
:100190000102D40F4200B2EB410F02D202460846E0
:1001A00011464A0042D0C30DDDB2C1F3C752AD1AA9
:1001B000202D35DAC1F3160141F4000204B1524298
:1001C000C5F1200602FA06F12A411044B3EBD05FD4
:1001D00023D0C4B1012DA0EBC35009DCF0BC4FF01B
:1001E000004202EAC352DBB200F5000000F0BDB9E4
:1001F000400000F1807000EBC350A0F1807040EA35
:10020000D170490009E0490841EAC071A0EBC35030
:1002100000F50000400800EBC350F0BC00F09CB9B2
:100220006142012202EB4101001BF6E7F0BC70477E
:1002300081F00041AAE780F00040A7E780EA0102D0
:1002400010B502F00043400022D04A001FD0010E3A
:1002500001EB1261C0F35600C2F3560240F40000F5
:1002600042F40002A0FB022000047F39140400D0F5
:10027000401C50EA124001D44000491EC2B20C0694
:1002800004EBD010401C4008802A02D003E000207C
:1002900010BD20F00100002900DA0020184310BD35
:1002A00030B480EA010202F0004530F0004221F053
:1002B000004013D090B1C30DD40DC2F31601C0F3AA
:1002C0001600E41A41F4000140F400027D3491422A
:1002D00001D3641C00E04900002C02DA30BC00208D
:1002E00070474FF400000023914201D3891A034361
:1002F00040084FEA4101F7D151B1914202D14FF08C
:10030000004105E002D24FF0010101E06FF0010170
:1003100003EBC450284430BC00F01EB92DE9F04D69
:1003200081EA030404F0004B21F0004514464FF02D
:10033000000A23F0004150EA050220D054EA0102ED
:100340001DD0C5F30A570246C5F31303C1F31300CA
:10035000C1F30A5640F4801543F48013A7EB060856
:10036000101BD64608F2FD3873EB050002D308F1E6
:10037000010801E092185B41B8F1000F03DA002098
:100380000146BDE8F08D00204FF4801106468446FA
:100390000EE0171B73EB050705D3121B63EB050378
:1003A00006434CEA010C49084FEA300092185B41C1
:1003B00050EA0107EDD152EA030012D082EA0400AC
:1003C00083EA0501084305D0101BAB4106D2012288
:1003D000002306E000224FF0004302E06FF001022C
:1003E00053101AEB06004CEB085110EB0A0041EBDE
:1003F0000B01BDE8F04D00F0E6B89623002211464F
:1004000000F0B3B800F0004220F00040C10DC0F38E
:10041000160040F400007F2901DA00207047962979
:1004200003DCC1F19601C84001E096398840002AFA
:10043000F4D04042704700F0004230F000400AD053
:10044000C10D01F56071C0F3160042EA0151C20806
:1004500040071143704700200146704701F00043F8
:1004600030B421F0004150EA010206D00A0DA2F595
:100470006072C1F31301002A02DC30BC0020704717
:10048000440F44EAC104C100E01830BC00EBC25084
:1004900000F062B8002801DBC0F10040002901DB58
:1004A000C1F1004181427047002801DBC0F10040EA
:1004B000002901DBC1F10041884270470FB40023DD
:1004C00000B589B00CA900910B996FF00042CB6088
:1004D0001E4B06931E4B07930423CDE901321D4AA0
:1004E000089202466B46002000F070F909B05DF8F2
:1004F00014FB70B586B006464FF0FF300091CDE991
:100500000101002015460C4604903246694604A8B5
:10051000FFF7D4FF03460498211825B108B10A4615
:1005200000E022462A6000280DD0002B02DD009852
:10053000884208D0081B0094CDE901043246694680
:1005400004A8FFF7BBFF06B070BD0000050A000855
:10055000230A0008C30600080029A8BF7047401CF2
:10056000490008BF20F00100704710B4B0FA80FCC9
:1005700000FA0CF050EA010404BF10BC704749B106
:10058000CCF1200421FA04F411FA0CF118BF012176
:1005900021430843A3EB0C01CB1D4FEA00614FEA56
:1005A000102042BF002010BC704700EBC350104425
:1005B0000029A4BF10BC7047401C490008BF20F0B0
:1005C000010010BC704710B5141E73F1000408DA66
:1005D000401C41F1000192185B411A4301D120F007
:1005E000010010BD2DE9F04D92469B4611B1B1FAC4
:1005F00081F202E0B0FA80F22032904600F052F828
:1006000004460F4640EA0A0041EA0B0153465A46A7
:10061000084313D0114653EA010019D0C8F1400233
:100620005046FFF77FFD05460E4650465946424666
:1006300000F038F8084305D0012004E02046394690
:10064000BDE8F08D0020054346EAE0762C433743B1
:100650000A986305E40AA0EB08000022FD0A44EAB8
:1006600047540A3002D500200146E9E70105101978
:100670006941DDE9084500196941BDE8F04DA2E78F
:10068000064C074D06E0E06840F0010394E80700DF
:1006900098471034AC42F6D3FFF72CFDD83C000845
:1006A000F83C0008202A04DB203A00FA02F100207E
:1006B00070479140C2F1200320FA03F319439040A0
:1006C0007047C0B24FF4F05100F0BCB92DE9FF4FB4
:1006D000087881B09946FF2805D0491C2D2804D000
:1006E0000024002308E000230BE00124F9E703EBDA
:1006F000830300EB4303491C0878FF28F7D104B1BA
:100700005B4200200090147801462D2C01D02B2C48
:1007100004D1521C2D2C12D00024009400251678F0
:10072000FF2E0ED00A24A0FB04C801FB0481002781
:1007300000FB0711521C16EB0C006941EFE7012486
:10074000EBE7994450EA01020ED00024AA4D264658
:10075000DFF8A88200F0FCF982468B46B9F1000070
:1007600009DAC9F100071BE001980021C0E9001176
:1007700005B0BDE8F08F074612E0F80707D0224623
:100780002B463046414600F071F90646884622461F
:100790002B461046194600F069F904460D467F10B5
:1007A000002FEAD1B9F1000F324643465046594670
:1007B00002DAFFF7B3FD01E000F058F9009A0AB140
:1007C00081F00041019AC2E90001D1E72DE9FF4F14
:1007D0001F468DB0D7E901464FF0FF382E20454621
:1007E0004FF000090B90B9696D1C0E988847396A63
:1007F000824688470028F6D1BAF1FF3F0AD024F498
:10080000D064002E11DDBAF12B0F08D0BAF12D0FF4
:100810000BD102E0404611B0ABE744F48064B96903
:100820006D1C0E9888478246761E6946600501D584
:100830002D2000E02B208DF8000001F1010B0DF1BF
:10084000200809E0B9696D1C0E98884782460F9808
:1008500044F40074761E0560002E02DDBAF1300FFC
:10086000F0D00B998A453ED144F0800406E00F9900
:10087000681CA9F1010944F400740860B9696D1C91
:10088000761E0E98884782463028F0D02BE00B99D0
:100890008A4505D1200603D444F08004761E18E072
:1008A000504603F035F908B30DF11301761E44F4F8
:1008B00000748B4508D2AAF130000BF8010B20061A
:1008C00007D5A9F1010003E0200602D409F10100D7
:1008D0008146A00502D50F99681C0860B9696D1C96
:1008E0000E9888478246002ED1DC53E0002E51DD61
:1008F000BAF1650F02D0BAF1450F4BD1A00549D529
:10090000B9696D1C24F44074761E0E98884782469F
:10091000002E0CDD2B2804D0BAF12D0F07D144F4A2
:100920008074B9696D1C0E9888478246761EE00572
:1009300001D52D2100E02B2108F8011BCDF82C80DA
:1009400021E00DF12901761E44F4007488450CD293
:10095000AAF1300010F0FF0088F8000002D10B99D6
:10096000884509D908F1010806E0E00501D52448C9
:1009700001E042F20F708146B9696D1C0E988847FC
:1009800082460F980560002E04DD504603F0C0F843
:100990000028D6D1F9690E988847FF208BF800000F
:1009A00088F800000020069007904B466A4608A988
:1009B00006A8FFF78BFEA00502D46FF001002AE71E
:1009C00014F0240F0AD0E00714D1DDE906123868CC
:1009D000031D3B600068C0E900120BE0DDE9060181
:1009E000FFF73CFD0146E00704D13868021D3A607C
:1009F0000068016028460EE7000024400000F03F38
:100A0000F1D8FFFF426842B1016811F8013B23B100
:100A1000521EC0E90012184670470121C160881EAD
:100A2000704742685AB1C368016843B983688B4212
:100A300005D0491E521CC0E90012002070474FF03B
:100A4000FF3070477F2801D9002208E0064A02EBF8
:100A50005002C007127800D1120902F00F020120E3
:100A60009040084070470000983C00082DE9FE4F78
:100A700081EA030404F0004421F0004100944FF0A7
:100A8000000B23F0004350EA01045ED052EA030455
:100A90005BD0C3F30A54C1F30A552C44A4F2F334D7
:100AA0000194A0FB0254C1F3130141F48011C3F37C
:100AB000130343F4801301FB024400FB034E840A3A
:100AC000970A44EA815447EA8357A4FB07680295D2
:100AD0008D0A05FB07854FEA932C04FB0C54270570
:100AE000029D4FEA065847EA1637B5EB08056EEB4C
:100AF000070C870E920E47EA811742EA8312A7FB82
:100B00000201B6EB0B0164EB00042B0D43EA0C333E
:100B10005E1844EB1C50DA465146E7FB0201C5F370
:100B200013044FEA0B3343EA14534FEA0432019C97
:100B300043EA0603A4F10C040294009CCDE900B43E
:100B4000FFF750FD03B0BDE8F08F00200146F9E744
:100B50000EB540F2334202920022CDE90022134644
:100B6000FFF740FD03B000BD00BFFEE7312802D112
:100B70000121094A1160302802D10021064A116082
:100B8000322802D10221044A1160332802D1032104
:100B9000014A116070470000040000207047704750
:100BA00072B600BFFEE70146002291F8210002283C
:100BB00008D00420886300BF002081F8200000BF17
:100BC000012070470868006820F00E000B6818606C
:100BD0000868006820F001000B68186091F8403048
:100BE00001209840CB6B5860012081F8210000BFA4
:100BF000002081F8200000BF1046E2E770B50446EF
:100C0000002594F82100022803D00420A0630125C8
:100C100048E02068006820F00E0021680860206825
:100C2000006820F00100216808601F4920688842A0
:100C300001D1012026E01C4914312068884201D1ED
:100C400010201FE0184928312068884201D1801502
:100C500018E015493C312068884201D1801411E028
:100C6000114950312068884202D14FF4803009E0A8
:100C70000D4964312068884202D14FF4801001E0B0
:100C80004FF08070084908394860012084F821003D
:100C900000BF002084F8200000BF606B10B1204628
:100CA000616B8847284670BD080002402DE9F8476F
:100CB0000346002294466EE14FF0010808FA02F460
:100CC000D1F8008008EA0400A0427DD1DFF8DCA260
:100CD000D1F80480A8EB0A09D0453AD014DCB8F169
:100CE000030F50D009DCB8F1000F31D0B8F1010F7B
:100CF0001CD0B8F1020F49D120E0B8F1110F18D083
:100D0000B8F1120F42D11EE0B9F5881F25D006DCDC
:100D1000B9F5803F20D0B9F5801F37D11AE0B9F579
:100D2000001F18D0B9F5041F30D117E0D1F80CC05E
:100D30002DE0D1F80C8008F1040C28E0D1F80C80EB
:100D400008F1080C23E0D1F80C8008F10C0C1EE02F
:100D500000BF00BF00BF00BF00BF00BFD1F80880C8
:100D6000B8F1000F02D14FF0040C0BE0D1F808806D
:100D7000B8F1010F03D14FF0080C1C6102E04FF0F5
:100D8000080C5C6103E04FF0000C00E000BF00BF06
:100D9000FF2801D8984601E003F104084646FF28E1
:100DA00002D84FEA820803E0A2F108084FEA880857
:100DB0004746D6F800804FF00F0909FA07F928EAEC
:100DC00009080CFA07F900E088E048EA0908C6F8C3
:100DD0000080D1F8048008F08058B8F1805F7DD1A0
:100DE00000BFDFF8CC81D8F8188048F00108DFF8A0
:100DF000C091C9F81880C846D8F8188008F00108D2
:100E0000CDF8008000BF00BF4FEAB9384FEA920921
:100E100058F829504FEA82784FEA18794FF00F08B6
:100E200008FA09F825EA0805DFF88881434502D168
:100E30004FF0000816E0DFF88081434502D14FF003
:100E400001080FE0DFF87481434502D14FF002083A
:100E500008E0DFF86C81434502D14FF0030801E060
:100E60004FF004084FEA82794FEA197908FA09F835
:100E700048EA0505DFF84C814FEA920948F8295005
:100E8000D1F8048008F48038B8F5803F0AD1DFF843
:100E90003881D8F8008048EA0008DFF82C91C9F8BA
:100EA000008009E0DFF82081D8F8008028EA0008F7
:100EB000DFF81491C9F80080D1F8048008F40038F4
:100EC000B8F5003F10D1DFF8008108F10408D8F828
:100ED000008048EA0008DFF8F09000E05AE009F1ED
:100EE0000409C9F800800DE0DFF8DC8008F104088F
:100EF000D8F8008028EA0008DFF8CC9009F104094E
:100F0000C9F80080D1F8048008F48018B8F5801F73
:100F10000ED1DFF8B48008F10808D8F8008048EA5C
:100F20000008DFF8A49009F10809C9F800800DE075
:100F3000DFF8948008F10808D8F8008028EA000853
:100F4000DFF8849009F10809C9F80080D1F804801D
:100F500008F40018B8F5001F0ED1DFF86C8008F116
:100F60000C08D8F8008048EA0008DFF85C9009F126
:100F70000C09C9F800800DE0DFF84C8008F10C087E
:100F8000D8F8008028EA0008DFF83C9009F10C0945
:100F9000C9F80080521CD1F8008028FA02F8B8F194
:100FA000000F7FF489AEBDE8F88700000000111043
:100FB0000010024000080140000C014000100140F8
:100FC00000140140080001400004014002469368FB
:100FD0000B400BB1012000E0002070470AB1016115
:100FE00001E00B040361704701480068704700008E
:100FF000300000200348006803490978084401498B
:1010000008607047300000203800002010B5084804
:10101000006840F0100006490860032000F0A8F8BE
:101020000F2000F007F800F02BF8002010BD0000A2
:101030000020024070B504460E4800784FF47A71E3
:10104000B1FBF0F00C490968B1FBF0F5284600F05F
:101050000BFC08B1012070BD102C07D200222146E4
:10106000501E00F047F80548046001E00120F2E757
:101070000020F0E7380000203C0000203400002071
:1010800008B500BF1148806940F001000F49886130
:101090000846806900F00100009000BF00BF00BF5B
:1010A0000846C06940F08050C8610846C06900F039
:1010B0008050009000BF00BF00BF0549486820F085
:1010C000E06040F00070486000BF08BD00100240C2
:1010D0000000014001460846002809DB00F01F031C
:1010E00001229A4043099B0003F1E023C3F8002149
:1010F00000BF70472DE9F05F80460D461646002779
:1011000002F0CEFC074639462A46334601F0070076
:10111000C0F1070ABAF1040F02D94FF0040A01E046
:10112000C0F1070AD14600F1040ABAF1070F02D252
:101130004FF0000A01E0A0F1030AD4464FF0010A83
:101140000AFA09FAAAF1010A0AEA020A0AFA0CFAE8
:101150004FF0010B0BFA0CFBABF1010B0BEA030B8D
:101160004AEA0B042146404602F0A2FCBDE8F09F8B
:1011700000BF00F00702064B19684FF6FF03194045
:10118000044B0B4343EA0221014B196000BF704737
:101190000CED00E00000FA0570B504460D460CB9F0
:1011A000012070BD5A48006800F00700A8420ED226
:1011B0005748006820F00700284355490860084652
:1011C000006800F00700A84201D00120E9E720787C
:1011D00000F0020002281DD1207800F0040004284D
:1011E00005D14C48406840F4E0604A4948602078A6
:1011F00000F00800082805D14648406840F46050D7
:10120000444948604348406820F0F000A168084322
:1012100040494860207800F0010078B360680128F8
:1012200006D13C48006800F4003090B90120B8E7CE
:101230006068022806D13748006800F0007040B9A5
:101240000120AEE73348006800F0020008B9012031
:10125000A7E73048406820F00300616808432D4943
:101260004860FFF7C1FE064609E0FFF7BDFE801BA0
:1012700041F28831884202D9032092E707E02548ED
:10128000406800F00C006168B0EB810FEDD12048A0
:10129000006800F00700A8420ED91D48006820F041
:1012A000070028431A4908600846006800F0070054
:1012B000A84201D0012074E7207800F0040004283F
:1012C00007D11448406820F4E060E1680843114900
:1012D0004860207800F00800082808D10D484068D0
:1012E00020F46050216940EAC1000A49486000F0DA
:1012F0003FF808494968C1F30311074A515CC840E7
:101300000649086006480068FFF794FE002048E799
:101310000020024000100240803C00083C000020F9
:101320003400002001480068704700003C000020A5
:1013300000B5FFF7F7FF04494968C1F30221034AEA
:10134000515CC84000BD000000100240903C000805
:1013500000B5FFF7E7FF04494968C1F3C221034A1A
:10136000515CC84000BD000000100240903C0008E5
:10137000F0B585B00FF26C0C9CE8E01001A8A0E875
:10138000E0101CA52D6800950021002200230024F8
:101390000020194D696801F00C05F5B1042D02D04B
:1013A000082D19D101E0154819E001ADC1F38346BC
:1013B000AC5D01F4803555B10F4D6D68C5F3404506
:1013C0001DF805200D4D6543B5FBF2F302E00C4D11
:1013D00004FB05F3184602E000BF084800BF00BF49
:1013E00005B0F0BD02030405060708090A0B0C0D41
:1013F0000E0F1010010200000010024000127A00CF
:1014000000093D00F8B504460CB90120F8BD20786C
:1014100000F00100002878D0F848406800F00C0087
:1014200004280CD0F548406800F00C00082811D1C1
:10143000F248406800F48030B0F5803F0AD1EF48B0
:10144000006800F4003000285FD0606800285CD19C
:101450000120DBE700BF6068B0F5803F06D1E748B8
:10146000006840F48030E549086028E0606858B9B9
:10147000E248006820F48030E049086008460068CF
:1014800020F4802008601AE06068B0F5A02F0BD12E
:10149000DA48006840F48020D849086008460068AF
:1014A00040F4803008600AE0D448006820F48030BE
:1014B000D24908600846006820F48020086000BF18
:1014C000606888B1FFF790FD054606E0FFF78CFDE8
:1014D000401B642801D9032098E7C848006800F43D
:1014E00000300028F2D010E0FFF77EFD054606E050
:1014F000FFF77AFD401B642801D9032086E7BF4827
:10150000006800F400300028F2D1207800F00200DA
:10151000022857D1B948406800F00C0050B1B748D4
:10152000406800F00C00082818D1B448406800F466
:10153000803098B9B148006800F0020020B12069FD
:10154000012801D0012061E7AC48006820F0F800D4
:10155000616940EAC100A949086033E02069E8B147
:101560000120A7490860FFF73FFD054606E0FFF7A9
:101570003BFD401B022801D9032047E79F48006834
:1015800000F002000028F2D09C48006820F0F8002B
:10159000616940EAC1009949086013E00020984958
:1015A0000860FFF721FD054606E0FFF71DFD401B23
:1015B000022801D9032029E79048006800F00200C2
:1015C0000028F2D1207800F0080008282DD1A06969
:1015D000B8B101208B490860FFF706FD054606E01B
:1015E000FFF702FD401B022801D903200EE78348C4
:1015F000406A00F002000028F2D0012001F0B4FDA2
:1016000013E000207F490860FFF7EEFC054606E086
:10161000FFF7EAFC401B022801D90320F6E67748D1
:10162000406A00F002000028F2D1207800F00400A7
:10163000042873D100277148C06900F0805070B948
:1016400000BF6E48C06940F080506C49C8610846D0
:10165000C06900F08050009000BF00BF01276A48B9
:10166000006800F48070B0B96748006840F480708A
:1016700065490860FFF7B8FC054606E0FFF7B4FCD3
:10168000401B642801D90320C0E65F48006800F4CD
:1016900080700028F2D000BFE068012806D15748CA
:1016A000006A40F001005549086227E0E06858B937
:1016B0005248006A20F00100504908620846006A5A
:1016C00020F00400086219E0E06805280BD14B48BF
:1016D000006A40F00400494908620846006A40F088
:1016E000010008620AE04548006A20F00100434911
:1016F00008620846006A20F00400086200BFE06843
:10170000A0B1FFF771FC054609E0FFF76DFC401B37
:1017100041F28831884202D9032077E622E0374837
:10172000006A00F002000028EFD012E0FFF75CFC36
:10173000054608E0FFF758FC401B41F2883188421B
:1017400001D9032062E62D48006A00F0020000285B
:10175000F0D1012F05D12948C06920F080502749D8
:10176000C86100BFE069C8B32448406800F00C00BD
:10177000082860D0E069022848D100202049086686
:10178000FFF732FC054606E0FFF72EFC401B02285F
:1017900001D903203AE61948006800F000700028DB
:1017A000F2D1206AB0F5803F07D11448406820F498
:1017B0000030A168084311494860D4E90801084392
:1017C0000E49496821F4741108430C49486001200E
:1017D0000B490866FFF708FC054607E03DE0FFF708
:1017E00003FC401B022801D903200FE603480068D0
:1017F00000F000700028F2D02FE00000001002403E
:10180000000042428004424200700040002014491F
:101810000866FFF7E9FB054606E0FFF7E5FB401B1E
:10182000022801D90320F1E50E48006800F000709D
:101830000028F2D111E0E069012800D1E6E509486D
:10184000466806F48031206A814204D106F47011A2
:10185000606A814201D00120D8E50020D6E5000071
:10186000000042420010024070B504462546681E42
:10187000B0F1807F01D301200FE0681E4FF0E0211E
:1018800048610F214FF0FF3002F012F900204FF0B5
:10189000E021886107200861002070BD7047704713
:1018A00030B502460B4600BF92F83C00012801D13A
:1018B000022030BD012082F83C0000BF022082F8E7
:1018C0003D00106844681068816824F0700418684E
:1018D000044310684460104D1068A8420BD0106893
:1018E000B0F1804F07D00D4D1068A84203D00C4DC9
:1018F0001068A84205D121F08001586801431068A2
:101900008160012082F83D0000BF002082F83C0089
:1019100000BF00BFCDE70000002C014000040040E4
:101920000008004010B504460CB9012010BD94F821
:101930003D0028B9002084F83C00204600F026F83D
:10194000022084F83D00211D206801F06BFC01207D
:1019500084F8460000BF84F83E0001213F20015575
:10196000402001554120015500BF00BF012084F8EF
:10197000420043200155442001554520015500BF38
:10198000012084F83D000020D0E7000038B504466F
:101990000D492068884215D100BF0C48C06940F04D
:1019A00004000A49C8610846C06900F004000090BC
:1019B00000BF00BF002211461E20FFF79BFB1E2028
:1019C000FFF788FB38BD000000080040001002400F
:1019D000014691F83D00012801D001207047022006
:1019E00081F83D000868C06840F001000B68D860CD
:1019F000124B086898420BD00868B0F1804F07D0AE
:101A00000F4B0868984203D00E4B086898420CD1DF
:101A10000868806800F00702062A0CD00868006891
:101A200040F001000B68186005E00868006840F0AD
:101A300001000B6818600020D0E70000002C014076
:101A400000040040000800402DE9F04104460D4626
:101A500000BF94F83C00012802D10220BDE8F081CB
:101A6000012084F83C0000BF022084F83D0020687B
:101A7000866826F0770626F47F4620688660286808
:101A8000502833D00CDC202850D004DC00284BD068
:101A9000102851D149E0302849D040284CD139E0B4
:101AA00060282DD0702807D0B0F5805F03D0B0F546
:101AB000005F41D10DE040E0D5E902136A6820687B
:101AC00001F0FBFB2068866846F077062068866098
:101AD00033E0D5E902136A68206801F0EEFB206864
:101AE000806840F480402168886026E0EA68696880
:101AF000206801F0B3FC5021206801F0E9FB1CE0F4
:101B0000EA686968206801F0F1FC6021206801F052
:101B1000DFFB12E0EA686968206801F09FFC402161
:101B2000206801F0D5FB08E000BF00BF00BF2968B6
:101B3000206801F0CDFB00E000BF00BF012084F869
:101B40003D0000BF002084F83C0000BF00BF85E7D7
:101B50002DE9F0470446664884425BD1207F042883
:101B600058D101036348FFF731FA81460821204626
:101B700000F012FD0546FEF740FC5F4948600A464A
:101B800011685068FEF754FB5B4988608868002143
:101B9000FEF780FC06D2584988685849FEF7F6FAE5
:101BA000554988605448406853490860B9F1000FAE
:101BB00016D1534908695349FEF7E8FA50490861BC
:101BC0004D498868FEF737FC07463A460B464E48B3
:101BD0004E49FEF7A3FB0546FEF740FC48498860E6
:101BE000B9F1010F16D1464908694649FEF720FBB5
:101BF0004349086140498868FEF71DFC05462A46AE
:101C00000B4641484249FEF789FB0746FEF726FC92
:101C10003B498860364884425BD1207F082858D1F0
:101C200001033448FFF7D2F982460C21204600F028
:101C3000B3FC0546FEF7E1FB364948600A461168E9
:101C40005068FEF7F5FA3349886088680021FEF78E
:101C500021FC06D22F4988682849FEF797FA2D49BA
:101C600088602C4840682B490860BAF1010F16D1F2
:101C7000234948692349FEF789FA214948612549E2
:101C80008868FEF7D8FB05462A460B461E481F49C2
:101C9000FEF744FB0746FEF7E1FB1949C860BAF1BD
:101CA000000F16D1164948691649FEF7C1FA1449C2
:101CB000486118498868FEF7BEFB05462A460B4670
:101CC00011481349FEF72AFB0746FEF7C7FB0C49EC
:101CD000C8600B4A51691069FEF758FA05464FF083
:101CE0008041FEF7DDFA06498861BDE8F087000013
:101CF0005C010020000C01404401002000FF7F47F0
:101D000044000020B81E053FEC51B81E3BF51F41B2
:101D10003BF51FC1500100202DE9F04104460D465E
:101D2000164600BF94F83C00012802D10220BDE80D
:101D3000F081012084F83C0000BF96B9EB68D5E93A
:101D40000012206801F09EFB2068806920F00C00E2
:101D50002168886120688069A968084321688861D2
:101D60003DE0042E13D1EB68D5E90012206801F0A4
:101D7000D1FB2068806920F4406021688861206878
:101D80008069A96840EA01202168886127E0082E5F
:101D900012D1EB68D5E90012206801F0D8FB206869
:101DA000C06920F00C002168C8612068C069A9687A
:101DB00008432168C86112E0EB68D5E90012206889
:101DC00001F0E1FB2068C06920F440602168C8612F
:101DD0002068C069A96840EA01202168C86100BF85
:101DE000002084F83C0000BF00BFA0E710B5044607
:101DF0000CB9012010BD94F83D0028B9002084F8EA
:101E00003C00204600F026F8022084F83D00211D09
:101E1000206801F007FA012084F8460000BF84F82A
:101E20003E0001213F200155402001554120015530
:101E300000BF00BF012084F8420043200155442028
:101E400001554520015500BF012084F83D000020C8
:101E5000D0E7000010B586B0044600200290039041
:101E6000049005901949206888422CD100BF184879
:101E7000806940F40060164988610846806900F472
:101E80000060019000BF00BF00BF0846806940F0BD
:101E9000040088610846806900F00400019000BFDA
:101EA00000BF4FF47060029000200390049002A9DC
:101EB0000848FEF7FBFE002211461B20FFF71AF927
:101EC0001B20FFF707F906B010BD0000002C0140F1
:101ED00000100240000801402DE9F04104460D4683
:101EE00015B994F83E000BE0042D02D13F20005DAF
:101EF00006E0082D02D14020005D01E04120005D98
:101F0000074615B994F842000BE0042D02D1432096
:101F1000005D06E0082D02D14420005D01E045206F
:101F2000005D8046012F02D1B8F1010F02D00120DF
:101F3000BDE8F0811DB9022084F83E000EE0042DBA
:101F400003D102213F20015508E0082D03D10221D1
:101F50004020015502E00221412001551DB9022017
:101F600084F842000EE0042D03D1022143200155E4
:101F700008E0082D03D102214420015502E002218E
:101F80004520015535B1042D0BD0082D10D00C2D56
:101F90001CD114E02068C06840F002002168C860CD
:101FA00015E02068C06840F004002168C8600EE0B9
:101FB0002068C06840F008002168C86007E0206819
:101FC000C06840F010002168C86000E000BF00BF9A
:101FD00001222946206801F05FF9124920688842F1
:101FE0000BD02068B0F1804F07D00F49206888429D
:101FF00003D00E49206888420CD12068806800F028
:102000000706062E0CD02068006840F00100216809
:10201000086005E02068006840F001002168086061
:10202000002085E7002C014000040040000800402B
:1020300010B5044620680069C0F34000D8B120689C
:10204000C068C0F34000B0B16FF0020021680861C1
:10205000012020772068806900F0030018B1204635
:10206000FFF776FD05E0204600F0F8F8204600F086
:10207000BDF90020207720680069C0F38000D8B146
:102080002068C068C0F38000B0B16FF00400216820
:102090000861022020772068806900F4407018B140
:1020A0002046FFF755FD05E0204600F0D7F8204612
:1020B00000F09CF90020207720680069C0F3C00080
:1020C000D8B12068C068C0F3C000B0B16FF008009C
:1020D00021680861042020772068C06900F00300AF
:1020E00018B12046FFF734FD05E0204600F0B6F8B1
:1020F000204600F07BF90020207720680069C0F3BB
:102100000010D8B12068C068C0F30010B0B16FF003
:10211000100021680861082020772068C06900F459
:10212000407018B12046FFF713FD05E0204600F08F
:1021300095F8204600F05AF90020207720680069C1
:1021400000F0010058B12068C06800F0010030B113
:102150006FF0010021680861204600F0B3F92068A3
:102160000069C0F3C01058B12068C068C0F3C01047
:1021700030B16FF08000216808612046FFF78EFBC8
:1021800020680069C0F3801058B12068C068C0F3AF
:10219000801030B16FF0400021680861204600F0E7
:1021A00014FA20680069C0F3401058B12068C06874
:1021B000C0F3401030B16FF0200021680861204664
:1021C000FFF76DFB10BD000010B586B0044600207F
:1021D00002900390049005902068B0F1804F17D1D1
:1021E00000BF1A48806940F0040018498861084619
:1021F000806900F00400019000BF00BF032002903E
:1022000002200390059002A91148FEF74FFD1BE044
:1022100010492068884217D100BF0C48806940F0FF
:1022200008000A4988610846806900F008000190AA
:1022300000BF00BF4FF44070029002200390059051
:1022400002A90548FEF732FD06B010BD001002409D
:102250000008014000080040000C0140704770B5C4
:1022600004460D46164600BF94F83C00012801D1F3
:10227000022070BD012084F83C0000BF36B1042E5E
:102280001BD0082E31D00C2E5ED145E029462068A7
:1022900001F028F82068806940F008002168886112
:1022A0002068806920F004002168886120688069C6
:1022B000296908432168886147E02946206801F0C0
:1022C00041F82068806940F40060216888612068D6
:1022D000806920F4806021688861206880692969AC
:1022E00040EA0120216888612FE02946206801F03A
:1022F0005DF82068C06940F008002168C861206866
:10230000C06920F004002168C8612068C06929699B
:1023100008432168C86118E02946206801F07AF86E
:102320002068C06940F400602168C8612068C06905
:1023300020F480602168C8612068C069296940EA8A
:1023400001202168C86100E000BF00BF00BF00207D
:1023500084F83C0000BF00BF8BE710B504460CB901
:10236000012010BD94F83D0028B9002084F83C00FD
:10237000204600F025F8022084F83D00211D206849
:1023800000F050FF012084F8460000BF84F83E00B2
:1023900001213F200155402001554120015500BF3A
:1023A00000BF012084F8420043200155442001551C
:1023B0004520015500BF012084F83D000020D0E7F2
:1023C00008B50168B1F1804F0DD100BF0649C96958
:1023D00041F00101044AD1611146C96901F00101CE
:1023E000009100BF00BF08BD001002407047000010
:1023F00070B504460D4615B994F83E000BE0042D67
:1024000002D13F20005D06E0082D02D14020005D92
:1024100001E04120005D012801D0012070BD1DB9FF
:10242000022084F83E000EE0042D03D102213F205B
:10243000015508E0082D03D102214020015502E09A
:1024400002214120015501222946206800F024FF85
:1024500019492068884201D1012000E0002028B1FC
:102460002068406C40F400402168486412492068AC
:1024700088420BD02068B0F1804F07D00F49206808
:10248000884203D00E49206888420CD120688068B9
:1024900000F00706062E0CD02068006840F001000E
:1024A0002168086005E02068006840F001002168AC
:1024B00008600020B2E70000002C0140000400404A
:1024C0000008004010B504462C48006810B964208C
:1024D00001F046FA29480068012812D1284800F086
:1024E0009FFD2849886928490968FDF7DDFF08D262
:1024F0004FF6FF7302226F21244800F069FB01F0C0
:1025000023FB1E480068042812D11D4800F088FDF6
:102510001C4988691E490968FDF7C6FF08D24FF6B5
:10252000FF7302226F21194800F052FB01F00CFBEF
:1025300012480068022804D141F28831012001F0DC
:1025400025FA0E480068032817D100F03FFD01F07E
:10255000FBFA10480068401C0E49086008460068F5
:10256000B0F5FA6F09D14FF6FF7302226F210748C9
:1025700000F02EFB00200749086010BD0400002079
:1025800000001644440000201000002078020020C3
:10259000140000202C0000200246002031B1042944
:1025A00007D0082908D00C290CD108E01368586B13
:1025B00009E01368986B06E01368D86B03E01368B2
:1025C000186C00E000BF00BF70477047704770474D
:1025D00010B504462068C06820F490702168C86077
:1025E0002068406920F0010021684861206B0128C3
:1025F00005D12068C06820F010002168C8602068FC
:10260000406900F04000E8B12068406920F04000D7
:1026100021684861A06B50B11048A16B4863A06B62
:10262000FEF7ECFAC0B1A06B416B884714E00020C4
:10263000E085202084F83E00002020632046FFF73C
:10264000C6FF09E00020E085202084F83E0000203D
:1026500020632046FFF7BBFF002010BDD7350008E0
:10266000704700002DE9F84F04462068056820688F
:10267000C668206847694FF00009CA4605F00F098F
:10268000B9F1000F0AD105F0200038B106F02000A2
:1026900020B1204600F0D8FFBDE8F88FB9F1000F57
:1026A00071D007F0010018B906F4907000286AD0C4
:1026B00005F0010030B106F4807018B1206C40F0D4
:1026C0000100206405F0040030B107F0010018B1EA
:1026D000206C40F00200206405F0020030B107F0E9
:1026E000010018B1206C40F00400206405F00800DF
:1026F00048B106F0200010B907F0010018B1206CB5
:1027000040F008002064206C68B305F0200028B178
:1027100006F0200010B1204600F096FF20684069C6
:10272000C0F3801A206C00F0080010B9BAF1000F55
:1027300022D0204600F05DFF2068406900F0400094
:10274000B0B12068406920F0400021684861A06B6A
:1027500050B15648A16B4863A06BFEF74FFA10B119
:10276000A06B416B88470CE02046FFF779FF08E03B
:102770002046FFF775FF04E02046FFF771FF0020B9
:10278000206489E7FFE7206B012878D105F010006D
:10279000002874D006F01000002870D000BF002080
:1027A000009020680068009020684068009000BF9A
:1027B00000BF2068406900F04000C0B3A06B006813
:1027C00040681FFA80F8B8F1000F2FD0A08D404567
:1027D0002CDDA4F82E80A06B806920281FD02068F3
:1027E000C06820F480702168C8602068406920F0CB
:1027F0000100216848612068406920F0400021689C
:102800004861202084F83E00002020632068C068D2
:1028100020F010002168C860A06BFEF7C4F9A08DFD
:10282000E28D801A81B22046FFF7D0FE34E7FFE741
:10283000A08DE18D401A1FFA80F8E08DE8B1B8F163
:10284000000F1AD02068C06820F490702168C8601A
:102850002068406920F0010021684861202084F848
:102860003E00002020632068C06820F0100021682E
:10287000C86041462046FFF7A9FE0DE7FFE705F0D7
:10288000800030B106F0800018B1204600F0EFFF64
:1028900002E705F0400030B106F0400018B12046D4
:1028A00000F0C2FEF8E600BFF6E60000C3350008FF
:1028B00010B504460CB9012010BDA06900B100E0BC
:1028C00000BF94F83D0028B9002084F83C00204661
:1028D00000F028F8242084F83D002068C06820F427
:1028E00000502168C860204600F020FF2068006981
:1028F00020F49040216808612068406920F02A0097
:10290000216848612068C06840F400502168C860B0
:1029100000202064202084F83D0084F83E00002040
:10292000CAE7000010B586B004460020029003906C
:10293000049005904049206888423FD100BF3F483D
:10294000806940F480403D4988610846806900F410
:102950008040019000BF00BF00BF0846806940F082
:10296000080088610846806900F00800019000BFF7
:1029700000BF40200290022003900320059002A98E
:102980002F48FEF793F980200290002003900490D6
:1029900002A92B48FEF78AF900BF2A49486840F08F
:1029A000E06040F00400486000BF0022114625208E
:1029B000FEF7A0FB2520FEF78DFB3AE022492068B8
:1029C000884236D100BF1D48C06940F480201B49B1
:1029D000C8610846C06900F48020019000BF00BFB4
:1029E00000BF0846806940F0080088610846806999
:1029F00000F00800019000BF00BF081502900220FF
:102A000003900320059002A90D48FEF74FF94FF4FB
:102A10000060029000200390049002A90848FEF78D
:102A200045F9002211462720FEF764FB2720FEF718
:102A300051FB06B010BD00000038014000100240FC
:102A4000000C0140000001400048004070B5044601
:102A50000D46164694F83E00202816D105B10EB951
:102A6000012070BD00BF94F83C00012801D1022074
:102A7000F7E7012084F83C0000BF002020633246C5
:102A80002946204600F0D0FEEBE70220E9E70000EF
:102A900070B50446444884420BD144490878FEF797
:102AA00065F84148FFF794FD012240493E48FFF791
:102AB000CDFF3F48844276D13E4800780A2817D19E
:102AC00000203D493D4A12688854084601F027F825
:102AD0000546FDF7C3FC3A494860002037490860C5
:102AE0003549087037480068401C364908604EE098
:102AF000304800780D2803D100203349086046E0B3
:102B00002C480078092803D102202F4908603EE0B4
:102B100028480078722815D101202B49086001F05F
:102B200013F82A480068401C2849086008460068D5
:102B300003282CD14FF6FF73022274211C4800F0A9
:102B400047F824E01B4800786C2815D104201E4962
:102B5000086000F0F9FF1D480068401C1B49086030
:102B600008460068032812D14FF6FF730222742131
:102B70000F4800F02DF80AE00E4800780E490F4A81
:102B8000126888540D480068401C0C4908600949C7
:102B90000878FEF703F80648FFF71AFD01220549F9
:102BA0000348FFF753FF70BD3402002000000020EF
:102BB00078020020020000203801002028000020B8
:102BC0004400002008000020040000200C00002029
:102BD0002DE9F84F04460E46174699464FF0000A75
:102BE00094F83D0020285AD106B117B90120BDE85C
:102BF000F88F00BF94F83C00012801D10220F6E7CD
:102C0000012084F83C0000BF00202064212084F8CB
:102C10003D00FEF7E9F98246A784E784A068B0F595
:102C2000805F04D1206910B90025B04602E0354626
:102C30004FF0000800BF002084F83C0000BF1BE0FC
:102C40005346002280212046CDF8009000F03FFE40
:102C500008B10320CBE745B9B8F80000C0F308007D
:102C60002168486008F1020803E02878216848607C
:102C70006D1CE08C401EE084E08C0028E0D15346BF
:102C8000002240212046CDF8009000F020FE08B13F
:102C90000320ACE7202084F83D000020A7E70220B5
:102CA000A5E7704700BFFEE700B585B000200190A2
:102CB00002900390049000BF2B48806940F02000F0
:102CC000294988610846806900F02000009000BF13
:102CD00000BF00BF0846806940F0040088610846D4
:102CE000806900F00400009000BF00BF00BF0846EC
:102CF000806940F0080088610846806900F008009B
:102D0000009000BF00BF00224FF400411748FEF7BB
:102D100065F9002238211648FEF760F94FF470403B
:102D2000019000200290039001A91148FDF7BEFF19
:102D30004FF40040019001200290002003900220F7
:102D4000049001A90948FDF7B1FF38200190012046
:102D50000290002003900220049001A90448FDF78E
:102D6000A5FF05B000BD00000010024000080140B2
:102D7000000C014000B587B000200590069001903E
:102D8000029003900490234823490860472048603C
:102D90000021214881604FF6FF71C160002101616F
:102DA00041618161FFF722F808B1FDF7F9FE0020CB
:102DB0000590069005A91848FEF772FD08B1FDF7C9
:102DC000EFFE00200190012002900020039004906B
:102DD000002201A91048FEF79FFF08B1FDF7E0FEB1
:102DE000042201A90C48FEF797FF08B1FDF7D8FEB1
:102DF000082201A90848FEF78FFF08B1FDF7D0FEB1
:102E00000C2201A90448FEF787FF08B1FDF7C8FEB0
:102E100007B000BD002C01405C01002000B589B066
:102E20000020079008901C216846FDF7A4F94FF098
:102E300080401B4908604720486000211848816095
:102E40004FF47A71C160002101618161FFF785FA59
:102E500008B1FDF7A5FE00200790089007A91048CB
:102E6000FEF71EFD08B1FDF79BFE602000900020DC
:102E7000019002900490002269460948FFF7EFF99B
:102E800008B1FDF78DFE042269460548FFF7E7F912
:102E900008B1FDF785FE0248FFF796F909B000BDBD
:102EA000A401002000B58DB0002009900A900B907D
:102EB0000C90079008901C216846FDF75CF92448A7
:102EC00024490860472048600021224881604FF46F
:102ED0007A71C160002101618161FEF723FD08B1B3
:102EE000FDF75EFE4FF48050099009A91948FEF7DE
:102EF000ABFD08B1FDF754FE1648FFF72EFA08B1F6
:102F0000FDF74EFE00200790089007A91148FEF734
:102F1000C7FC08B1FDF744FE60200090002001903E
:102F200002900490082269460A48FFF798F908B110
:102F3000FDF736FE0C2269460648FFF790F908B106
:102F4000FDF72EFE0348FFF73FF90DB000BD00006E
:102F500000080040EC01002010B50B480B49086048
:102F60004FF4E1304860002108488160C160016190
:102F70000C21416100218161C161FFF799FC08B119
:102F8000FDF70EFE10BD00000038014034020020A5
:102F900010B50B480B4908604FF4E1304860002140
:102FA00008488160C16001610C214161002181619B
:102FB000C161FFF77DFC08B1FDF7F2FD10BD000017
:102FC000004800407802002000BFFEE720B54FF423
:102FD0007A700F490968C863012208210D48FDF77E
:102FE000FDFF4FF47A700A49096808640122D10391
:102FF0000948FDF7F3FF2046FDF704FA0546294688
:10300000042000F0F9FC00200449086020BD000005
:10301000EC010020000C0140000801400C000020E1
:103020002DE9F04704460025214841680020FDF7BE
:10303000FFF880461F4B204A4146204800F04AF8DE
:1030400080F0004529462046FDF7F2F881461848F1
:1030500081684846FDF7ECF88046194B194A41460D
:10306000194800F037F8064629462046FDF78EF845
:1030700081460F48C1684846FDF7DAF88046104B94
:10308000104A4146114800F025F807463046FDF742
:10309000B9F980464146032000F0AEFC3846FDF702
:1030A000B1F980464146042000F0A6FCBDE8F08757
:1030B0004400002000007A4400007AC41801002077
:1030C0000000614400009643B8000020D8000020B2
:1030D00000BFFEE72DE9F04704460F4615461E46A1
:1030E000A761A1692068FDF7A9F8E060616820691F
:1030F000FDF7D6F88246A169FDF748F88146616878
:10310000FDF79CF82061D4E90601FDF791F88146AE
:10311000A168FDF793F86061A069E061D4E903015B
:10312000FDF734F881466169FDF730F88046314695
:103130002069FDF7B9F900D2266129462069FDF71B
:10314000A9F900D2256131464046FDF7ADF900D21C
:10315000B04629464046FDF79DF900D2A8464046B4
:10316000BDE8F0877047000008B508490968C9083C
:103170004FF47A72B1FBF2F14143009100BF00BFFE
:1031800000994A1E00920029F9D108BD3C00002098
:10319000704710B5FDF72EFF10BD00B58FB0282188
:1031A00005A8FCF7E8FF14216846FCF7E4FF0120BE
:1031B000059000040690002007900120099002204D
:1031C0000C90C1030D914FF4E0110E9105A8FEF78C
:1031D00019F908B1FDF7E4FC0F20009002200190DE
:1031E000002002904FF480600390002004900221A0
:1031F0006846FDF7D1FF08B1FDF7D2FC0FB000BD66
:103200007047000010B50248FEF712FF10BD000025
:103210005C01002010B50248FEF70AFF10BD000057
:10322000EC01002010B50268184B984208D0B0F1AC
:10323000804F05D0164B984202D0164B984203D1CE
:1032400022F070024B681A43104B984208D0B0F13C
:10325000804F05D00E4B984202D00E4B984203D1BE
:1032600022F44072CB681A4322F080034C6943EA8F
:10327000040202608B68C3620B688362034B98424E
:1032800001D10B6903630123436110BD002C014090
:10329000000400400008004030B501F01F05012483
:1032A00004FA05F3046A9C430462046A01F01F05F2
:1032B00002FA05F52C43046230BD30B50C46816836
:1032C00021F47F4142EA032525432943816030BD33
:1032D0000A46816821F0700142F0070319438160BA
:1032E0007047000030B5056A25F001050562026AE5
:1032F0004368846924F0700424F003040D682C43AF
:1033000022F002028D682A430D4DA84206D100BF6B
:1033100022F00802CD682A4322F00402084DA84298
:1033200007D123F4807323F400734D692B438D6917
:103330002B43436084614D684563026230BD0000E9
:10334000002C014030B5056A25F010050562026ABF
:103350004368846924F4E04424F440740D6844EA2A
:10336000052422F020028D6842EA05120E4DA84283
:1033700007D100BF22F08002CD6842EA051222F098
:103380004002094DA84209D123F4806323F400636D
:103390004D6943EA85038D6943EA8503436084618F
:1033A0004D688563026230BD002C014030B5056A6E
:1033B00025F480750562026A4368C46924F07004CC
:1033C00024F003040D682C4322F400728D6842EA55
:1033D00005220F4DA84207D100BF22F40062CD683C
:1033E00042EA052222F48062094DA84209D123F461
:1033F000805323F400534D6943EA05138D6943EA72
:1034000005134360C4614D68C563026230BD0000AE
:10341000002C014030B5056A25F480550562036A29
:103420004468C26922F4E04222F440720D6842EA24
:10343000052223F400538D6843EA0533064DA84264
:1034400004D124F480444D6944EA85144460C26187
:103450004D680564036230BD002C014030B50B4659
:103460001446026A056A25F001050562816921F0AA
:10347000F00141EA041122F00A021A43816102625A
:1034800030BD000070B50C461546066A26F00106F0
:1034900006628169026A124EB04208D0B0F1804FD4
:1034A00005D0104EB04202D00F4EB04201D10126DD
:1034B00000E000261EB121F00301294301E041F0A4
:1034C000010121F0F001F02606EA0316314322F053
:1034D0000A0204F00A0632438161026270BD0000F4
:1034E000002C0140000400400008004030B50B46AD
:1034F0001446056A25F0100505628169026A21F407
:10350000704141EA043122F0A00242EA03128161D3
:10351000026230BD70B50C461546066A26F01006EC
:1035200006628169026A21F4407141EA052121F4B1
:1035300070414FF4704606EA0336314322F0A00290
:10354000A02606EA041632438161026270BD70B59E
:103550000C461546066A26F480760662C169026A40
:1035600021F00301294321F0F001F02606EA0316B9
:10357000314322F400724FF4007606EA0426324307
:10358000C161026270BD70B50C461546066A26F42C
:1035900080560662C169026A21F4407141EA052140
:1035A00021F470414FF4704606EA0336314322F4A9
:1035B00000524FF4005606EA04363243C1610262FB
:1035C00070BD70B505466C6A0020E085E084204639
:1035D000FFF746F870BD70B505466C6A0020E085BF
:1035E000202084F83E00002020632046FEF7EFFFF5
:1035F00070BD0168C96821F490710268D1600168EA
:10360000496921F0010102685161016B012905D16D
:103610000168C96821F010010268D160202180F89A
:103620003E1000210163704710B504462068C06851
:1036300020F040002168C860202084F83D0020462A
:10364000FFF72FFB002010BDF8B5044694F83E00AC
:10365000222869D1A068B0F5805F0CD1206950B9EB
:103660000025A66A20684068C0F308003080A06A80
:10367000801CA06215E0A56A0026A068B0F5805FF6
:1036800003D0A06828B9206918B92068406828705C
:1036900004E02068406800F07F002870A06A401CA9
:1036A000A062E08D401E80B2E085A8BB2068C068A3
:1036B00020F020002168C8602068C06820F4807075
:1036C0002168C8602068406920F0010021684861D5
:1036D000202084F83E00206B01281ED100202063AA
:1036E0002068C06820F010002168C8602068006869
:1036F00000F0100010280AD100BF002000902068C0
:103700000068009020684068009000BF00BFA18D55
:103710002046FEF75BFF03E004E02046FFF7B8F920
:103720000020F8BD0020FCE70220FAE770B504464F
:103730002168096921F44051E2681143226811614E
:103740002269A1681143626941EA02052168C968DA
:1037500041F20C62914329432268D1602168496992
:1037600021F44071A2691143226851612D4A2168F8
:10377000914202D1FDF7ECFD01E0FDF7D9FD00EB30
:10378000C00101EB001162689200B1FBF2F100EBA5
:10379000C00202EB001263689B00B2FBF3F26423E9
:1037A000B2FBF3F202EBC20303EB0212A1EB8201C4
:1037B000322202EB01116422B1FBF2F101F0F001BF
:1037C00000EBC00202EB001263689B00B2FBF3F255
:1037D0006423B2FBF3F201EB021200EBC00101EB38
:1037E000001163689B00B1FBF3F100EBC00303EB36
:1037F00000136668B600B3FBF6F36426B3FBF6F37A
:1038000003EBC30606EB0313A1EB8301322303EBA7
:1038100001116423B1FBF3F101F00F01114422689F
:10382000916070BD0038014010B5034699629A85D9
:10383000DA8500201864222083F83E0000BF0020B3
:1038400083F83C0000BF1868C06840F480701C68B2
:10385000E0601868406940F001001C686061186809
:10386000C06840F020001C68E060002010BD0146E8
:1038700091F83D00212828D18868B0F5805F0BD1F0
:10388000086948B90A6A1088C0F308000B685860D4
:10389000086A801C086205E00B6A581C08621878E8
:1038A0000B685860C88C401E80B2C88458B908683C
:1038B000C06820F080000B68D8600868C06840F0DD
:1038C00040000B68D860002070470220FCE72DE91B
:1038D000F04104460D4617469846069E21E0701CAE
:1038E000F8B12EB1FDF780FBA0EB0800B04218D96B
:1038F0002068C06820F4D0702168C86020684069E2
:1039000020F0010021684861202084F83D0084F8FF
:103910003E0000BF002084F83C0000BF0320BDE84B
:10392000F081206800682840A84201D1012000E011
:103930000020B842D3D00020F1E7000010B50248C3
:10394000FEF790FE10BD00003402002010B50248C2
:10395000FEF788FE10BD00007802002000BFFEE7E1
:1039600010B5044608480068401C0749086008462E
:103970000068A04206D1FFF729FB00F0E5F800201F
:103980000149086010BD00001800002070B5044611
:103990000D461548006880B914480068401C13495A
:1039A000086008460068A04207D1FFF70FFB00201F
:1039B0000E49086001200C4908600B480068012886
:1039C00010D10B480068401C09490860084600688F
:1039D000A84207D101200749086000200449086077
:1039E0000149086070BD0000240000201C00002078
:1039F000200000200400002070B506460C46B4F5F7
:103A00007A7F01DD4FF47A7414F57A7F00DA204C66
:103A1000002C00DD0125002C00DA0025032E02D049
:103A2000042E33D119E065B1012D14D1C4F57A709B
:103A300018490968C863012208211748FDF7CEFA22
:103A400009E0604213490968C8630022082112484E
:103A5000FDF7C4FA00BF00BF18E055B1012D13D126
:103A60000C48006804640022E9030C48FDF7B6FA2C
:103A70000AE004F57A700749096808640122D10355
:103A80000648FDF7ABFA00BF00BF00BF00BF70BD26
:103A900018FCFFFFEC010020000C01400008014071
:103AA00002480068C0F30220704700000CED00E0FF
:103AB00010B5002804DB0A07130E054A135406E06C
:103AC0000A07140E034A00F00F031B1FD45410BD45
:103AD00000E400E018ED00E00148006870470000D5
:103AE0004000002002E008C8121F08C1002AFAD1D5
:103AF00070477047002001E001C1121F002AFBD16E
:103B00007047000001490860704700004000002035
:103B100030380A2801D2012070470020704730B5A4
:103B200083B00446FFF7D8FF05460020CDE900002A
:103B3000024621466846FCF7DCFC2846FFF7E2FF18
:103B4000DDE9000103B030BD002002498861086151
:103B50004861704744000020F0B589B007460C4624
:103B600015461E4601940295039600200490059088
:103B7000069008900790202201A93846FCF7E2FA47
:103B800009B0F0BD88B0FDF741FAFFF706FBFFF77B
:103B90008BF8FFF7E1F9FFF7EDF8FFF73FF9FFF7D3
:103BA00081F9FFF7F5F9012227492848FEF74EFF72
:103BB000012227492748FEF749FF00212648FEF742
:103BC00017FC04212448FEF713FC08212348FEF7C4
:103BD0000FFC0C212148FEF70BFC2048FDF7F8FEF6
:103BE00000211F48FEF778F904211D48FEF774F9FB
:103BF00008211B48FEF770F90C211948FEF76CF9F3
:103C0000184B194A19496846FFF7A6FF2022694652
:103C10001748FCF797FA134B134A14496846FFF705
:103C20009BFF202269461348FCF78CFA0F4B0022B9
:103C300011496846FFF790FF202269460F48FCF7BC
:103C400081FA00BFFEE700000000002034020020DF
:103C50000200002078020020A4010020EC010020D6
:103C60005C0100200AD7233CEC51B83DCDCCCC3EC2
:103C7000B8000020D80000209A99593F1801002070
:103C8000000000000000000001020304060708090C
:103C90000000000001020304DDDDDDDDDCBBBBDD77
:103CA000DDDDDDDDDDDDDDDD9888888888888888DC
:103CB00077777777778888888555555666666666FC
:103CC00066666666666888888333333222222222DB
:103CD000222222222228888DF83C000800000020A1
:103CE00044000000E43A00083C3D00084400002085
:103CF0007C060000F43A0008000000000300000009
:103D000000000000000000000000AF4500209945C1
:103D100000000000000000000000000000000000A3
:103D20000000000000000000000000001000000083
:0C3D3000010000000024F400000000006E
:04000005080000ED02
:00000001FF
